S01000004350726F6A6563742E73726563FA
S11300000C9434000C9451000C9451000C94510045
S11300100C9451000C9451000C9451000C94510018
S11300200C9451000C9451000C9451000C94510008
S11300300C9451000C9420030C9451000C94510026
S11300400C9451000C9451000C94C5030C94F303CC
S11300500C9451000C9451000C9451000C945100D8
S11300600C9451000C94510011241FBECFEFD8E022
S1130070DEBFCDBF11E0A0E0B1E0EEE3FCE002C0E2
S113008005900D92A634B107D9F721E0A6E4B1E0BA
S113009001C01D92AC38B207E1F70E94B1020C9482
S11300A01D060C940000FC01408121E030E002C0F8
S11300B0220F331F6A95E2F7242B20830895FC0155
S11300C0908121E030E002C0220F331F6A95E2F7ED
S11300D02095292320830895FC01408121E030E00C
S11300E002C0220F331F6A95E2F724272083089564
S11300F085B1826085B985E08A95F1F7000085B104
S11301008D7F85B90895CF93C82F662321F085B1DB
S1130110816085B903C085B18E7F85B98AB180615C
S11301208AB98AB180628AB98AB180648AB98AB18B
S113013080688AB98BB18F778BB98BB18F7B8BB980
S11301408BB18F7D8BB98BB18F7E8BB9CC231CF493
S11301508BB180688BB9C6FF03C08BB180648BB947
S1130160C5FF03C08BB180628BB9C4FF03C08BB1E0
S113017080618BB90E9478008BB18F778BB98BB17A
S11301808F7B8BB98BB18F7D8BB98BB18F7E8BB904
S1130190C3FF03C08BB180688BB9C2FF03C08BB1AE
S11301A080648BB9C1FF03C08BB180628BB9C0FF7F
S11301B003C08BB180618BB90E9478008BB18061E0
S11301C08BB98BB180628BB98BB180648BB98BB1E5
S11301D080688BB987EB9BE00197F1F700C00000C2
S11301E0CF91089560E00E948300089561E00E9429
S11301F083000895611104C080580E94F20008959C
S113020080540E94F200089581E00E94F200089553
S113021061E00E9483000895CF93DF93FC0103C043
S11302200E940801FE01EF01219680818111F8CF1F
S1130230DF91CF910895CF93C82F84B1816084B9A1
S11302408AB180628AB984B1826084B98AB18061DA
S11302508AB98AB180628AB98AB180648AB98AB15A
S113026080688AB98FEF99EF0197F1F700C0000019
S11302708BB180628BB98BB180618BB90E9478009D
S11302808FE19EE40197F1F700C000000E9478001E
S11302908FEF90E00197F1F700C000000E94780012
S11302A08FEF90E00197F1F700C000008BB18F7ED3
S11302B08BB90E9478008FEF90E00197F1F700C0AE
S11302C0000088E20E94F20088E00E94F2000E948E
S11302D0040186E00E94F2008C2F0E94F200CF916C
S11302E008952F923F924F925F926F927F928F92D6
S11302F09F92AF92BF92CF92DF92EF92FF920F93B1
S11303001F93CF93DF93CDB7DEB72A970FB6F89438
S1130310DEBF0FBECDBF9A838983762E642E4C2C0C
S11303203D2C2E2CFE821F832887532E0E945F00B3
S113033010E029813A813A872987B0C0E0E9F1E0E9
S11303403197F1F7019702C088EC90E00097B1F77C
S113035089859A85672D0E946C00242D332D422DAA
S11303605E81602F7F818885952D0E94C3046B0177
S11303707C012BEA3AEA4AEA50E40E947B054B01ED
S11303805C0120E030E040E850E4C701B6010E947F
S11303907B0569837A838B839C8320E030E040E88B
S11303A05FE3C501B4010E941D0488230CF46BC0F3
S11303B020E03FEF4FE757E469817A818B819C818C
S11303C00E94760518160CF044C020E030E04AE79D
S11303D054E4C701B6010E9422044B015C0120E0F1
S11303E030E04AE755E40E947B056B017C0120E084
S11303F030E040E85FE30E941D04882324F120E0FC
S11304003FEF4FE757E4C701B6010E94760518167F
S1130410ACF420E030E040E251E4C501B4010E94B4
S11304207B050E94940406C080E991E00197F1F7EE
S11304306150710961157105B9F727C0C701B6018B
S11304400E94940402C061E070E0CB010197F1F7CF
S11304501CC020E030E04FE753E4C501B4010E9422
S11304607605181654F469817A818B819C810E94E7
S11304709404CB010197F1F70BC0C501B4010E94AC
S113048094046D8302C091E09D838D818A95F1F778
S1130490672D89859A850E946C001F5F161508F4E4
S11304A053CF2A960FB6F894DEBF0FBECDBFDF91AF
S11304B0CF911F910F91FF90EF90DF90CF90BF905D
S11304C0AF909F908F907F906F905F904F903F90F0
S11304D02F900895EF92FF920F931F93CF93DF9382
S11304E000D000D0CDB7DEB77C01162F042F80E3F7
S11304F090E39A83898380E390E09C838B8360E01C
S113050081E00E94FA00C7010E940C01110F812FA3
S11305100E949003802F0E94AD030E94C10381E0DA
S1130520810F0E9490030E94B703182F4AE0BE0176
S11305306F5F7F4F90E00E94E80561E080E00E94D9
S1130540FA00CE0101960E940C01812F0F900F90AA
S11305500F900F90DF91CF911F910F91FF90EF902B
S113056008958CE00E941B0180E40E94F200C0E028
S113057008C0EC2FF0E0EF5FFE4F80810E94F60090
S1130580CF5FC831B0F380E80E94F20060E080E001
S11305900E94FA0089E191E00E940C0161E080E090
S11305A00E94FA008DE191E00E940C010E948103F7
S11305B0E1E8F0E080818D7F8083808185608083A5
S11305C0EFE6F0E0808181608083789460E08AE2E5
S11305D090E00E9453000F2EFCEDCF2EF02D0F2E35
S11305E0F5E0DF2EF02DE12CF12C00E010E020E00E
S11305F030E044E160E08BE290E00E9471010F2E54
S1130600F0EDCF2EF02D0F2EF7E0DF2EF02D20E0B1
S113061030E044E160E08BE290E00E9471010F2E33
S1130620F8EECF2EF02D0F2EF3E0DF2EF02D20E08C
S113063030E044E160E08BE290E00E947101CBCFB6
S11306401F920F920FB60F9211242F933F934F9343
S11306505F936F937F938F939F93AF93BF93EF9326
S1130660FF9380910001823019F08330D1F035C0BE
S11306700E94040140E06CE58BE291E00E946A0272
S11306808093460184E391E00E940C01809146012D
S1130690803118F081E00E94080183E0809300011A
S11306A01FC00E94040142E06CE587E391E00E94D0
S11306B06A028093460182E00E94080183E491E08B
S11306C00E940C0180914601803118F080E00E9464
S11306D0080182E08093000103C083E0809300015D
S11306E0FF91EF91BF91AF919F918F917F916F9106
S11306F05F914F913F912F910F900FBE0F901F90DC
S1130700189587B18F7C87B988B1806388B9E9EB84
S1130710F0E080818C7F808388E98093B80008951D
S113072094EA9093BC009091BC009923E4F78093E1
S1130730BB0084E88093BC008091BC008823E4F76C
S11307408091B900887F883121F0803421F480E0E1
S1130750089580E0089581E008958093BB0084E8C3
S11307608093BC008091BC008823E4F7089584EC56
S11307708093BC008091BC008823E4F78091BB0087
S1130780089584E98093BC0008951F920F920FB6D8
S11307900F9211242F938F939F93EF93FF93809144
S11307A0C0002091C6008C71E0914901EF5FEF71A8
S11307B090914801E91739F0E0934901F0E0E45BD6
S11307C0FE4F208301C082E090914701892B8093E2
S11307D04701FF91EF919F918F912F910F900FBE41
S11307E00F901F9018951F920F920FB60F9211241D
S11307F08F939F93EF93FF9390914B0180914A01C4
S1130800981769F0E0914A01EF5FEF71E0934A01B4
S1130810F0E0E459FE4F80818093C60005C0E1EC0E
S1130820F0E080818F7D8083FF91EF919F918F9184
S11308300F900FBE0F901F9018950E94010508F4A9
S113084081E008950E9436040C943C050E9435050D
S113085058F00E942E0540F029F45F3F29F00C94D3
S1130860250551110C9470050C942B050E944D051F
S113087068F39923B1F3552391F3951B550BBB27CB
S1130880AA2762177307840738F09F5F5F4F220F10
S1130890331F441FAA1FA9F335D00E2E3AF0E0E807
S11308A032D091505040E695001CCAF72BD0FE2F51
S11308B029D0660F771F881FBB1F261737074807E5
S11308C0AB07B0E809F0BB0B802DBF01FF2793589D
S11308D05F4F3AF09E3F510578F00C9425050C9437
S11308E070055F3FE4F3983ED4F38695779567955A
S11308F0B795F7959F5FC9F7880F911D96958795D2
S113090097F90895E1E0660F771F881FBB1F6217F0
S113091073078407BA0720F0621B730B840BBA0BAE
S1130920EE1F88F7E09508950E94550588F09F57BB
S113093098F0B92F9927B751B0F0E1F0660F771FFF
S1130940881F991F1AF0BA95C9F714C0B13091F0F5
S11309500E946F05B1E008950C946F05672F782FFE
S11309608827B85F39F0B93FCCF3869577956795BA
S1130970B395D9F73EF490958095709561957F4F26
S11309808F4F9F4F0895E894F92F96EBFF2381F042
S1130990121613061406440B9395F69587957795CE
S11309A0679557954040FF23B9F71BC099270895D1
S11309B0882351F49850D2F7872B762F652F542F24
S11309C0432F322F20E0B1F3121613061406440B02
S11309D088233AF09A95440F551F661F771F881F86
S11309E0CAF755234AF4440F551F11F460FF04C09D
S11309F06F5F7F4F8F4F9F4F880F9695879597F91D
S1130A000895990F0008550FAA0BE0E8FEEF16169B
S1130A101706E807F907C0F012161306E407F507EE
S1130A2098F0621B730B840B950B39F40A2661F062
S1130A30232B242B252B21F408950A2609F4A14005
S1130A40A6958FEF811D811D089597F99F6780E812
S1130A5070E060E008959FEF80EC089500240A940C
S1130A601616170618060906089500240A94121685
S1130A701306140605060895092E0394000C11F4B8
S1130A80882352F0BB0F40F4BF2B11F460FF04C065
S1130A906F5F7F4F8F4F9F4F089557FD9058440FBE
S1130AA0551F59F05F3F71F04795880F97FB991FC9
S1130AB061F09F3F79F08795089512161306140686
S1130AC0551FF2CF4695F1DF08C016161706180613
S1130AD0991FF1CF86957105610508940895E894EE
S1130AE0BB2766277727CB0197F908950E94010554
S1130AF008F48FEF08950E948E050C943C050E9423
S1130B002E0538F00E94350520F0952311F00C9441
S1130B1025050C942B0511240C9470050E944D0599
S1130B2070F3959FC1F3950F50E0551F629FF0013C
S1130B30729FBB27F00DB11D639FAA27F00DB11D55
S1130B40AA1F649F6627B00DA11D661F829F2227DE
S1130B50B00DA11D621F739FB00DA11D621F839F65
S1130B60A00D611D221F749F3327A00D611D231F3B
S1130B70849F600D211D822F762F6A2F11249F5789
S1130B8050409AF0F1F088234AF0EE0FFF1FBB1F8C
S1130B90661F771F881F91505040A9F79E3F51054B
S1130BA080F00C9425050C9470055F3FE4F3983EA7
S1130BB0D4F3869577956795B795F795E7959F5FF5
S1130BC0C1F7FE2B880F911D9695879597F9089587
S1130BD0BB274A3031F4992322F4BDE290958195E4
S1130BE09F4F0C94F405BB27FB015527AA27880FB8
S1130BF0991FAA1FA41710F0A41B83955051B9F78D
S1130C00A05DAA3308F0A95DA193009779F7B1110B
S1130C10B1931192CB010C940D06DC01FC01672FFA
S1130C2071917723E1F7329704C07C916D937083BF
S1110C306291AE17BF07C8F30895F894FFCF82
S1130C3E030000150E1F0E1500000E1F1F150414C1
S1130C4E0C0007050700000000446532004D657472
S1130C5E656F2053746174696F6E0048554D494435
S1130C6E4954590025200054454D50455241545580
S1090C7E52450043200072
S9030000FC
