:100000000C9434000C9451000C9451000C94510049
:100010000C9451000C9451000C9451000C9451001C
:100020000C9451000C9451000C9451000C9451000C
:100030000C9451000C9452020C9451000C945100F9
:100040000C9451000C9451000C94F7020C9425036D
:100050000C9451000C9451000C9451000C945100DC
:100060000C9451000C94510011241FBECFEFD8E026
:10007000DEBFCDBF11E0A0E0B1E0ECE0F7E002C0F0
:1000800005900D92A634B107D9F721E0A6E4B1E0BE
:1000900001C01D92AC38B207E1F70E9471010C94C7
:1000A00084030C940000FC01408121E030E002C098
:1000B000220F331F6A95E2F7242B20830895FC0159
:1000C000908121E030E002C0220F331F6A95E2F7F1
:1000D0002095292320830895FC01408121E030E010
:1000E00002C0220F331F6A95E2F724272083089568
:1000F00085B1826085B985E08A95F1F7000085B108
:100100008D7F85B90895CF93C82F662321F085B1DF
:10011000816085B903C085B18E7F85B98AB1806160
:100120008AB98AB180628AB98AB180648AB98AB18F
:1001300080688AB98BB18F778BB98BB18F7B8BB984
:100140008BB18F7D8BB98BB18F7E8BB9CC231CF497
:100150008BB180688BB9C6FF03C08BB180648BB94B
:10016000C5FF03C08BB180628BB9C4FF03C08BB1E4
:1001700080618BB90E9478008BB18F778BB98BB17E
:100180008F7B8BB98BB18F7D8BB98BB18F7E8BB908
:10019000C3FF03C08BB180688BB9C2FF03C08BB1B2
:1001A00080648BB9C1FF03C08BB180628BB9C0FF83
:1001B00003C08BB180618BB90E9478008BB18061E4
:1001C0008BB98BB180628BB98BB180648BB98BB1E9
:1001D00080688BB987EB9BE00197F1F700C00000C6
:1001E000CF91089560E00E948300089561E00E942D
:1001F00083000895611104C080580E94F2000895A0
:1002000080540E94F200089581E00E94F200089557
:1002100061E00E9483000895CF93DF93FC0103C047
:100220000E940801FE01EF01219680818111F8CF23
:10023000DF91CF910895CF93C82F84B1816084B9A5
:100240008AB180628AB984B1826084B98AB18061DE
:100250008AB98AB180628AB98AB180648AB98AB15E
:1002600080688AB98FEF99EF0197F1F700C000001D
:100270008BB180628BB98BB180618BB90E947800A1
:100280008FE19EE40197F1F700C000000E94780022
:100290008FEF90E00197F1F700C000000E94780016
:1002A0008FEF90E00197F1F700C000008BB18F7ED7
:1002B0008BB90E9478008FEF90E00197F1F700C0B2
:1002C000000088E20E94F20088E00E94F2000E9492
:1002D000040186E00E94F2008C2F0E94F200CF9170
:1002E00008958CE00E941B0180E40E94F200C0E0AF
:1002F00008C0EC2FF0E0EF5FFE4F80810E94F60017
:10030000CF5FC831B0F380E80E94F20060E080E087
:100310000E94FA0089E191E00E940C0161E080E016
:100320000E94FA008DE191E00E940C010E94B3024C
:10033000E1E8F0E080818D7F80838081856080832B
:10034000EFE6F0E0808181608083789460E08AE26B
:1003500090E00E94530060E08BE290E00E945F001A
:10036000C0E01AC02FEF83EF91E021508040904011
:10037000E1F700C0000060E08BE290E00E946C00BA
:100380008FE697E10197F1F700C0000060E08BE293
:1003900090E00E946C00CF5FC43120F3C0E01AC02F
:1003A0009FEF23EF81E0915020408040E1F700C0B3
:1003B000000060E08BE290E00E946C008FE39FE120
:1003C0000197F1F700C0000060E08BE290E00E942E
:1003D0006C00CF5FC43120F3C0E01AC09FEF23EF61
:1003E00081E0915020408040E1F700C0000060E0D3
:1003F0008BE290E00E946C008FE99FE00197F1F79B
:1004000000C0000060E08BE290E00E946C00CF5FD3
:10041000C43120F3A5CFEF92FF920F931F93CF9398
:10042000DF9300D000D0CDB7DEB77C01162F042FAC
:1004300080E390E39A83898380E390E09C838B83BD
:1004400060E081E00E94FA00C7010E940C01110FD8
:10045000812F0E94C202802F0E94DF020E94F302BD
:1004600081E0810F0E94C2020E94E902182F4AE037
:10047000BE016F5F7F4F90E00E944F0361E080E01C
:100480000E94FA00CE0101960E940C01812F0F906C
:100490000F900F900F90DF91CF911F910F91FF90D0
:1004A000EF9008951F920F920FB60F9211242F9381
:1004B0003F934F935F936F937F938F939F93AF93EC
:1004C000BF93EF93FF9380910001823019F0833046
:1004D000D1F035C00E94040140E06CE58BE291E070
:1004E0000E940B028093460184E391E00E940C017C
:1004F00080914601803118F081E00E94080183E07C
:10050000809300011FC00E94040142E06CE587E374
:1005100091E00E940B028093460182E00E94080154
:1005200083E491E00E940C0180914601803118F033
:1005300080E00E94080182E08093000103C083E014
:1005400080930001FF91EF91BF91AF919F918F91A7
:100550007F916F915F914F913F912F910F900FBEBF
:100560000F901F90189587B18F7C87B988B18063F1
:1005700088B9E9EBF0E080818C7F808388E9809303
:10058000B800089594EA9093BC009091BC00992320
:10059000E4F78093BB0084E88093BC008091BC00AA
:1005A0008823E4F78091B900887F883121F0803476
:1005B00021F480E0089580E0089581E0089580931B
:1005C000BB0084E88093BC008091BC008823E4F7E2
:1005D000089584EC8093BC008091BC008823E4F7EC
:1005E0008091BB00089584E98093BC0008951F9218
:1005F0000F920FB60F9211242F938F939F93EF9327
:10060000FF938091C0002091C6008C71E091490158
:10061000EF5FEF7190914801E91739F0E0934901DC
:10062000F0E0E45BFE4F208301C082E0909147013F
:10063000892B80934701FF91EF919F918F912F918B
:100640000F900FBE0F901F9018951F920F920FB62C
:100650000F9211248F939F93EF93FF9390914B01EF
:1006600080914A01981769F0E0914A01EF5FEF71BC
:10067000E0934A01F0E0E459FE4F80818093C60088
:1006800005C0E1ECF0E080818F7D8083FF91EF91E8
:100690009F918F910F900FBE0F901F901895BB27C1
:1006A0004A3031F4992322F4BDE2909581959F4F11
:1006B0000C945B03BB27FB015527AA27880F991FC2
:1006C000AA1FA41710F0A41B83955051B9F7A05D81
:1006D000AA3308F0A95DA193009779F7B111B193FE
:1006E0001192CB010C947403DC01FC01672F719112
:1006F0007723E1F7329704C07C916D937083629108
:0C070000AE17BF07C8F30895F894FFCFB0
:10070C00030000150E1F0E1500000E1F1F150414FC
:10071C000C0007050700000000446532004D6574AD
:10072C00656F2053746174696F6E0048554D494470
:10073C004954590025200054454D504552415455BB
:06074C00524500432000AD
:00000001FF
