:100000000C9434000C9451000C9451000C94510049
:100010000C9451000C9451000C9451000C9451001C
:100020000C9451000C9451000C9451000C9451000C
:100030000C9451000C946C000C9451000C945100E1
:100040000C9451000C9451000C942F010C945D0100
:100050000C9451000C9451000C9451000C945100DC
:100060000C9451000C94510011241FBECFEFD8E026
:10007000DEBFCDBF11E0A0E0B1E0E6EFF3E002C0EB
:1000800005900D92A234B107D9F721E0A2E4B1E0C6
:1000900001C01D92A738B207E1F70E9453000C94EB
:1000A000F9010C9400000E94EB0087E690E00E94AA
:1000B0008701E1E8F0E080818D7F80838081856029
:1000C0008083EFE6F0E0808181608083789481E036
:1000D00091E00E94B701FFCF1F920F920FB60F92CF
:1000E00011242F933F934F935F936F937F938F933D
:1000F0009F93AF93BF93EF93FF93CF93DF9300D082
:1001000000D0CDB7DEB780E390E39A83898380E3A4
:1001100090E09C838B8380910001823089F018F4F9
:10012000813031F03EC0833099F0843091F139C094
:100130008FE191E00E94B70182E08093000134C01A
:1001400085E291E00E94B70183E0809300012CC01A
:100150008EE291E00E94B70182E00E9417010E94A6
:100160002B0189EB0E94FA000E9421014AE0BE01A6
:100170006F5F7F4F90E00E94C401CE0101960E9404
:10018000B7018CE291E00E94B70184E08093000106
:100190000BC086E391E00E94B70181E080930001EB
:1001A00003C081E0809300010F900F900F900F909B
:1001B000DF91CF91FF91EF91BF91AF919F918F917F
:1001C0007F916F915F914F913F912F910F900FBE53
:1001D0000F901F90189587B18F7C87B988B1806385
:1001E00088B9E9EBF0E080818C7F808388E9809397
:1001F000B800089594EA9093BC009091BC009923B4
:10020000E4F78093BB0084E88093BC008091BC003D
:100210008823E4F78091B900887F883121F0803409
:1002200021F480E0089580E0089581E008958093AE
:10023000BB0084E88093BC008091BC008823E4F775
:10024000089584EC8093BC008091BC008823E4F77F
:100250008091BB00089584E98093BC0008951F92AB
:100260000F920FB60F9211242F938F939F93EF93BA
:10027000FF938091C0002091C6008C71E0914401F1
:10028000EF5FEF7190914301E91739F0E09344017A
:10029000F0E0E95BFE4F208301C082E090914201D3
:1002A000892B80934201FF91EF919F918F912F9124
:1002B0000F900FBE0F901F9018951F920F920FB6C0
:1002C0000F9211248F939F93EF93FF939091460188
:1002D00080914501981769F0E0914501EF5FEF715A
:1002E000E0934501F0E0E959FE4F80818093C6001C
:1002F00005C0E1ECF0E080818F7D8083FF91EF917C
:100300009F918F910F900FBE0F901F901895109294
:100310004601109245011092440110924301282F8A
:10032000392F33231CF422E02093C000907890935F
:10033000C5008093C40088E98093C10086E0809363
:10034000C2000895209146012F5F2F7190914501C1
:100350002917E1F3E22FF0E0E959FE4F8083209363
:100360004601E1ECF0E08081806280830895CF93C4
:10037000DF93EC0103C021960E94A20188818111C4
:10038000FACFDF91CF910895BB274A3031F49923FA
:1003900022F4BDE2909581959F4F0C94D001BB272C
:1003A000FB015527AA27880F991FAA1FA41710F031
:1003B000A41B83955051B9F7A05DAA3308F0A95D3D
:1003C000A193009779F7B111B1931192CB010C94DD
:1003D000E901DC01FC01672F71917723E1F7329786
:1003E00004C07C916D9370836291AE17BF07C8F310
:0603F0000895F894FFCF10
:1003F600010D0A5363616E204932432D62757320E5
:10040600666F7220646576696365733A0D0A000A41
:1004160049444C45000A48554D49443A20000A547F
:10042600454D503A20000A434845434B53554D3AF3
:020436002000A4
:00000001FF
