:100000000C9434000C9451000C9451000C94510049
:100010000C9451000C9451000C9451000C9451001C
:100020000C9451000C9451000C9451000C9451000C
:100030000C9451000C94F4000C9451000C94510059
:100040000C9451000C9451000C94BE010C94EC01E2
:100050000C9451000C9451000C9451000C945100DC
:100060000C9451000C94510011241FBECFEFD8E026
:10007000DEBFCDBF11E0A0E0B1E0E4E1F5E002C0F9
:1000800005900D92A434B107D9F721E0A4E4B1E0C2
:1000900001C01D92A938B207E1F70E94DB000C9461
:1000A00088020C94000085B1826085B985E08A954C
:1000B000F1F7000085B18D7F85B90895CF93C82FE2
:1000C000662321F085B1816085B903C085B18E7F3B
:1000D00085B98AB180618AB98AB180628AB98AB1E8
:1000E00080648AB98AB180688AB98BB18F778BB9FD
:1000F0008BB18F7B8BB98BB18F7D8BB98BB18F7EA1
:100100008BB9CC231CF48BB180688BB9C6FF03C0BC
:100110008BB180648BB9C5FF03C08BB180628BB992
:10012000C4FF03C08BB180618BB90E9453008BB1B7
:100130008F778BB98BB18F7B8BB98BB18F7D8BB95F
:100140008BB18F7E8BB9C3FF03C08BB180688BB935
:10015000C2FF03C08BB180648BB9C1FF03C08BB1F8
:1001600080628BB9C0FF03C08BB180618BB90E94E4
:1001700053008BB180618BB98BB180628BB98BB12D
:1001800080648BB98BB180688BB987EB9BE001975A
:10019000F1F700C00000CF91089560E00E945E007A
:1001A0000895611104C080580E94CD0008958054C4
:1001B0000E94CD0008950E947A0187E690E00E9497
:1001C0001602E1E8F0E080818A7F8083808182608E
:1001D0008083EFE6F0E0808181608083789481E025
:1001E00091E00E944602FFCF1F920F920FB60F922E
:1001F00011242F933F934F935F936F937F938F932C
:100200009F93AF93BF93EF93FF93CF93DF9300D070
:1002100000D0CDB7DEB780E390E39A83898380E393
:1002200090E09C838B83809100018230A9F018F4C8
:10023000813031F045C08330D9F08430C9F140C0FD
:1002400061E081E00E94D1008FE191E00E944602CE
:1002500082E08093000137C061E081E00E94D1001C
:1002600087E291E00E94460283E0809300012BC068
:1002700080E391E00E94460288EB0E94890182E0BF
:100280000E94A6010E94BA0189EB0E9489010E9486
:10029000B0014AE0BE016F5F7F4F90E00E945302C1
:1002A000CE0101960E94460284E0809300010BC0BB
:1002B00088E391E00E94460281E08093000103C040
:1002C00081E0809300010F900F900F900F90DF91CD
:1002D000CF91FF91EF91BF91AF919F918F917F91BE
:1002E0006F915F914F913F912F910F900FBE0F90A3
:1002F0001F90189587B18F7C87B988B1806388B9C2
:10030000E9EBF0E080818C7F808388E98093B800FE
:10031000089594EA9093BC009091BC009923E4F76F
:100320008093BB0084E88093BC008091BC0088234C
:10033000E4F78091B900887F883121F0803421F47E
:1003400080E0089580E0089581E008958093BB00E7
:1003500084E88093BC008091BC008823E4F7089572
:1003600084EC8093BC008091BC008823E4F78091EA
:10037000BB00089584E98093BC0008951F920F92FA
:100380000FB60F9211242F938F939F93EF93FF93A8
:100390008091C0002091C6008C71E0914601EF5F12
:1003A000EF7190914501E91739F0E0934601F0E0D3
:1003B000E75BFE4F208301C082E090914401892BCE
:1003C00080934401FF91EF919F918F912F910F9016
:1003D0000FBE0F901F9018951F920F920FB60F929D
:1003E00011248F939F93EF93FF93909148018091F5
:1003F0004701981769F0E0914701EF5FEF71E093D3
:100400004701F0E0E759FE4F80818093C60005C0A8
:10041000E1ECF0E080818F7D8083FF91EF919F91EF
:100420008F910F900FBE0F901F901895109248015A
:10043000109247011092460110924501282F392F42
:1004400033231CF422E02093C00090789093C500E1
:100450008093C40088E98093C10086E08093C20045
:100460000895209148012F5F2F719091470129171E
:10047000E1F3E22FF0E0E759FE4F8083209348013B
:10048000E1ECF0E08081806280830895CF93DF9378
:10049000EC0103C021960E94310288818111FACFBC
:1004A000DF91CF910895BB274A3031F4992322F48C
:1004B000BDE2909581959F4F0C945F02BB27FB0195
:1004C0005527AA27880F991FAA1FA41710F0A41B4D
:1004D00083955051B9F7A05DAA3308F0A95DA193A7
:1004E000009779F7B111B1931192CB010C94780276
:1004F000DC01FC01672F71917723E1F7329704C08B
:100500007C916D9370836291AE17BF07C8F3089515
:04051000F894FFCF8D
:10051400010D0A5363616E204932432D62757320C5
:10052400666F7220646576696365733A0D0A0049E3
:10053400444C453A200A0048554D49443A200A00A3
:1005440054454D503A200A00434845434B53554DBA
:040554003A200A003F
:00000001FF
