S01000004350726F6A6563742E73726563FA
S11300000C9434000C9451000C9451000C94510045
S11300100C9451000C9451000C9451000C94510018
S11300200C9451000C9451000C9451000C94510008
S11300300C9451000C946C000C9451000C945100DD
S11300400C9451000C9451000C9446010C947401CE
S11300500C9451000C9451000C9451000C945100D8
S11300600C9451000C94510011241FBECFEFD8E022
S1130070DEBFCDBF11E0A0E0B1E0E4E2F4E002C0F5
S113008005900D92A432B107D9F721E0A4E2B1E0C2
S113009001C01D92A936B207E1F70E9453000C94E7
S11300A010020C9400000E94020187E690E00E9476
S11300B09E01E1E8F0E080818D7F8083808185600E
S11300C08083EFE6F0E0808181608083789482E031
S11300D091E00E94CE01FFCF1F920F920FB60F92B4
S11300E011241F932F933F934F935F936F937F93A9
S11300F08F939F93AF93BF93EF93FF93CF93DF932C
S113010000D0CDB7DEB780E390E39A8389838091F2
S11301100101823079F0833009F446C0813009F05E
S113012058C0809100018F5F8093000182E080932A
S1130130010152C080910001880F0E94110182E0E8
S11301400E942E010E94420180910001880F8F5F5E
S11301500E9411010E9438014AE0BE016F5F7F4F87
S113016090E00E94DB01CE0101960E94CE010E9424
S11301703801182F0E9442014AE0BE016F5F7F4F91
S1130180812F90E00E94DB0180E291E00E94CE0189
S1130190CE0101960E94CE0182E291E00E94CE013E
S11301A081E08093010118C08091000140E1BE010B
S11301B06F5F7F4F90E00E94DB01CE0101960E94A9
S11301C0CE0182E291E00E94CE0181E080930101A0
S11301D003C081E0809301010F900F90DF91CF91D4
S11301E0FF91EF91BF91AF919F918F917F916F910B
S11301F05F914F913F912F911F910F900FBE0F90E0
S11302001F90189587B18F7C87B988B1806388B9AE
S1130210E9EBF0E080818C7F808388E98093B800EB
S1130220089594EA9093BC009091BC009923E4F75C
S11302308093BB0084E88093BC008091BC00882339
S1130240E4F78091B900887F883121F0803421F46B
S113025080E0089580E0089581E008958093BB00D4
S113026084E88093BC008091BC008823E4F708955F
S113027084EC8093BC008091BC008823E4F78091D7
S1130280BB00089584E98093BC0008951F920F92E7
S11302900FB60F9211242F938F939F93EF93FF9395
S11302A08091C0002091C6008C71E0912601EF5F1F
S11302B0EF7190912501E91739F0E0932601F0E000
S11302C0E75DFE4F208301C082E090912401892BD9
S11302D080932401FF91EF919F918F912F910F9023
S11302E00FBE0F901F9018951F920F920FB60F928A
S11302F011248F939F93EF93FF9390912801809102
S11303002701981769F0E0912701EF5FEF71E093FF
S11303102701F0E0E75BFE4F80818093C60005C0B3
S1130320E1ECF0E080818F7D8083FF91EF919F91DC
S11303308F910F900FBE0F901F9018951092280167
S1130340109227011092260110922501282F392F8F
S113035033231CF422E02093C00090789093C500CE
S11303608093C40088E98093C10086E08093C20032
S11303700895209128012F5F2F719091270129174B
S1130380E1F3E22FF0E0E75BFE4F80832093280146
S1130390E1ECF0E08081806280830895CF93DF9365
S11303A0EC0103C021960E94B90188818111FACF22
S11303B0DF91CF910895BB274A3031F4992322F479
S11303C0BDE2909581959F4F0C94E701BB27FB01FB
S11303D05527AA27880F991FAA1FA41710F0A41B3A
S11303E083955051B9F7A05DAA3308F0A95DA19394
S11303F0009779F7B111B1931192CB010C940002DB
S1130400DC01FC01672F71917723E1F7329704C077
S11304107C916D9370836291AE17BF07C8F3089502
S1070420F894FFCF7A
S11304245C010D0A5363616E204932432D62757376
S113043420666F7220646576696365733A0D0A00F9
S10704442E00200062
S9030000FC
