:100000000C9434000C9451000C9451000C94510049
:100010000C9451000C9451000C9451000C9451001C
:100020000C9451000C9451000C9451000C9451000C
:100030000C9451000C940C020C9451000C9451003F
:100040000C9451000C9451000C9494020C94C20234
:100050000C9451000C9451000C9451000C945100DC
:100060000C9451000C94510011241FBECFEFD8E026
:10007000DEBFCDBF11E0A0E0B1E0E6E4F6E002C0F3
:1000800005900D92A832B107D9F721E0A8E2B1E0BE
:1000900001C01D92AD36B207E1F70E946D010C94CC
:1000A00021030C940000FC01408121E030E002C0FB
:1000B000220F331F6A95E2F7242B20830895FC0159
:1000C000908121E030E002C0220F331F6A95E2F7F1
:1000D0002095292320830895FC01408121E030E010
:1000E00002C0220F331F6A95E2F724272083089568
:1000F00085B1826085B985E08A95F1F7000085B108
:100100008D7F85B90895CF93C82F662321F085B1DF
:10011000816085B903C085B18E7F85B98AB1806160
:100120008AB98AB180628AB98AB180648AB98AB18F
:1001300080688AB98BB18F778BB98BB18F7B8BB984
:100140008BB18F7D8BB98BB18F7E8BB9CC231CF497
:100150008BB180688BB9C6FF03C08BB180648BB94B
:10016000C5FF03C08BB180628BB9C4FF03C08BB1E4
:1001700080618BB90E9478008BB18F778BB98BB17E
:100180008F7B8BB98BB18F7D8BB98BB18F7E8BB908
:10019000C3FF03C08BB180688BB9C2FF03C08BB1B2
:1001A00080648BB9C1FF03C08BB180628BB9C0FF83
:1001B00003C08BB180618BB90E9478008BB18061E4
:1001C0008BB98BB180628BB98BB180648BB98BB1E9
:1001D00080688BB987EB9BE00197F1F700C00000C6
:1001E000CF91089560E00E9483000895611104C0DA
:1001F00080580E94F200089580540E94F2000895F1
:1002000081E00E94F200089561E00E948300089559
:10021000CF93DF93FC0103C00E940401FE01EF01B4
:10022000219680818111F8CFDF91CF910895CF93EE
:10023000C82F84B1816084B98AB180628AB984B1DF
:10024000826084B98AB180618AB98AB180628AB9D0
:100250008AB180648AB98AB180688AB98FEF99EFD0
:100260000197F1F700C000008BB180628BB98BB1B0
:1002700080618BB90E9478008FE19EE40197F1F7CD
:1002800000C000000E9478008FEF90E00197F1F726
:1002900000C000000E9478008FEF90E00197F1F716
:1002A00000C000008BB18F7E8BB90E9478008FEF69
:1002B00090E00197F1F700C0000088E20E94F20090
:1002C00088E00E94F2000E94000186E00E94F20095
:1002D0008C2F0E94F200CF9108958CE00E941701AC
:1002E00060E080E00E94F60081E091E00E94080159
:1002F00061E080E00E94F60085E091E00E94080144
:100300000E945002E1E8F0E080818D7F808380814F
:1003100085608083EFE6F0E080818160808378945F
:1003200060E08AE290E00E94530060E08BE290E09F
:100330000E945F0060E08BE290E00E946C008FE31F
:100340009FE10197F1F700C0000060E08BE290E0D0
:100350000E946C008FE99FE00197F1F700C0000058
:1003600060E08BE290E00E946C008FE99FE00197D3
:10037000F1F700C0000060E08BE290E00E946C00AA
:100380008FE99FE00197F1F700C00000D3CFEF9213
:10039000FF920F931F93CF93DF9300D000D0CDB780
:1003A000DEB77C01162F042F80E390E39A838983C4
:1003B00080E390E09C838B8360E081E00E94F60004
:1003C000C7010E940801110F812F0E945F02802F38
:1003D0000E947C020E94900281E0810F0E945F02D5
:1003E0000E9486024AE0BE016F5F7F4F90E00E944C
:1003F000EC0261E080E00E94F600CE0101960E94CE
:1004000008010F900F900F900F90DF91CF911F91E7
:100410000F91FF90EF9008951F920F920FB60F92D9
:1004200011242F933F934F935F936F937F938F93F9
:100430009F93AF93BF93EF93FF938091000182301E
:1004400019F0833069F018C00E94000140E06CE5AB
:1004500083E191E00E94C70183E0809300010FC017
:100460000E94000142E06CE58CE191E00E94C7012E
:1004700082E08093000103C083E080930001FF913C
:10048000EF91BF91AF919F918F917F916F915F910C
:100490004F913F912F910F900FBE0F901F90189585
:1004A00087B18F7C87B988B1806388B9E9EBF0E0C8
:1004B00080818C7F808388E98093B800089594EAD6
:1004C0009093BC009091BC009923E4F78093BB000B
:1004D00084E88093BC008091BC008823E4F780917D
:1004E000B900887F883121F0803421F480E00895BC
:1004F00080E0089581E008958093BB0084E88093B4
:10050000BC008091BC008823E4F7089584EC8093BC
:10051000BC008091BC008823E4F78091BB00089563
:1005200084E98093BC0008951F920F920FB60F923A
:1005300011242F938F939F93EF93FF938091C0008B
:100540002091C6008C71E0912A01EF5FEF719091CC
:100550002901E91739F0E0932A01F0E0E35DFE4F4D
:10056000208301C082E090912801892B809328018B
:10057000FF91EF919F918F912F910F900FBE0F9050
:100580001F9018951F920F920FB60F9211248F9300
:100590009F93EF93FF9390912C0180912B019817DB
:1005A00069F0E0912B01EF5FEF71E0932B01F0E038
:1005B000E35BFE4F80818093C60005C0E1ECF0E074
:1005C00080818F7D8083FF91EF919F918F910F901C
:1005D0000FBE0F901F901895BB274A3031F4992316
:1005E00022F4BDE2909581959F4F0C94F802BB27B1
:1005F000FB015527AA27880F991FAA1FA41710F0DF
:10060000A41B83955051B9F7A05DAA3308F0A95DEA
:10061000A193009779F7B111B1931192CB010C948A
:100620001103DC01FC01672F71917723E1F7329709
:1006300004C07C916D9370836291AE17BF07C8F3BD
:060640000895F894FFCFBD
:1006460003446532004D6574656F205374617469A7
:100656006F6E0048554D49444954590054454D5014
:08066600455241545552450074
:00000001FF
